{
  "_format": "hh-sol-artifact-1",
  "contractName": "StackPointClaim",
  "sourceName": "contracts/StackPointClaim.sol",
  "abi": [
    {
      "inputs": [],
      "stateMutability": "nonpayable",
      "type": "constructor"
    },
    {
      "inputs": [
        {
          "internalType": "address",
          "name": "target",
          "type": "address"
        }
      ],
      "name": "AddressEmptyCode",
      "type": "error"
    },
    {
      "inputs": [
        {
          "internalType": "address",
          "name": "account",
          "type": "address"
        }
      ],
      "name": "AddressInsufficientBalance",
      "type": "error"
    },
    {
      "inputs": [],
      "name": "ECDSAInvalidSignature",
      "type": "error"
    },
    {
      "inputs": [
        {
          "internalType": "uint256",
          "name": "length",
          "type": "uint256"
        }
      ],
      "name": "ECDSAInvalidSignatureLength",
      "type": "error"
    },
    {
      "inputs": [
        {
          "internalType": "bytes32",
          "name": "s",
          "type": "bytes32"
        }
      ],
      "name": "ECDSAInvalidSignatureS",
      "type": "error"
    },
    {
      "inputs": [
        {
          "internalType": "address",
          "name": "implementation",
          "type": "address"
        }
      ],
      "name": "ERC1967InvalidImplementation",
      "type": "error"
    },
    {
      "inputs": [],
      "name": "ERC1967NonPayable",
      "type": "error"
    },
    {
      "inputs": [],
      "name": "EnforcedPause",
      "type": "error"
    },
    {
      "inputs": [],
      "name": "ExpectedPause",
      "type": "error"
    },
    {
      "inputs": [],
      "name": "FailedInnerCall",
      "type": "error"
    },
    {
      "inputs": [],
      "name": "InvalidInitialization",
      "type": "error"
    },
    {
      "inputs": [],
      "name": "NotInitializing",
      "type": "error"
    },
    {
      "inputs": [
        {
          "internalType": "address",
          "name": "owner",
          "type": "address"
        }
      ],
      "name": "OwnableInvalidOwner",
      "type": "error"
    },
    {
      "inputs": [
        {
          "internalType": "address",
          "name": "account",
          "type": "address"
        }
      ],
      "name": "OwnableUnauthorizedAccount",
      "type": "error"
    },
    {
      "inputs": [
        {
          "internalType": "address",
          "name": "token",
          "type": "address"
        }
      ],
      "name": "SafeERC20FailedOperation",
      "type": "error"
    },
    {
      "inputs": [],
      "name": "UUPSUnauthorizedCallContext",
      "type": "error"
    },
    {
      "inputs": [
        {
          "internalType": "bytes32",
          "name": "slot",
          "type": "bytes32"
        }
      ],
      "name": "UUPSUnsupportedProxiableUUID",
      "type": "error"
    },
    {
      "anonymous": false,
      "inputs": [
        {
          "indexed": false,
          "internalType": "uint256",
          "name": "accId",
          "type": "uint256"
        },
        {
          "indexed": false,
          "internalType": "address",
          "name": "addr",
          "type": "address"
        },
        {
          "indexed": false,
          "internalType": "uint256",
          "name": "amount",
          "type": "uint256"
        },
        {
          "indexed": false,
          "internalType": "uint256",
          "name": "nonce",
          "type": "uint256"
        }
      ],
      "name": "BountyClaim",
      "type": "event"
    },
    {
      "anonymous": false,
      "inputs": [
        {
          "indexed": false,
          "internalType": "string",
          "name": "objId",
          "type": "string"
        },
        {
          "indexed": false,
          "internalType": "uint256",
          "name": "starttime",
          "type": "uint256"
        },
        {
          "indexed": false,
          "internalType": "uint256",
          "name": "endtime",
          "type": "uint256"
        }
      ],
      "name": "BountyStarted",
      "type": "event"
    },
    {
      "anonymous": false,
      "inputs": [
        {
          "indexed": false,
          "internalType": "string",
          "name": "objId",
          "type": "string"
        },
        {
          "indexed": false,
          "internalType": "address",
          "name": "addrFrom",
          "type": "address"
        },
        {
          "indexed": false,
          "internalType": "uint256",
          "name": "amount",
          "type": "uint256"
        },
        {
          "indexed": false,
          "internalType": "uint256",
          "name": "timestamp",
          "type": "uint256"
        }
      ],
      "name": "BountyUpdate",
      "type": "event"
    },
    {
      "anonymous": false,
      "inputs": [
        {
          "indexed": false,
          "internalType": "uint64",
          "name": "version",
          "type": "uint64"
        }
      ],
      "name": "Initialized",
      "type": "event"
    },
    {
      "anonymous": false,
      "inputs": [
        {
          "indexed": true,
          "internalType": "address",
          "name": "previousOwner",
          "type": "address"
        },
        {
          "indexed": true,
          "internalType": "address",
          "name": "newOwner",
          "type": "address"
        }
      ],
      "name": "OwnershipTransferred",
      "type": "event"
    },
    {
      "anonymous": false,
      "inputs": [
        {
          "indexed": false,
          "internalType": "address",
          "name": "account",
          "type": "address"
        }
      ],
      "name": "Paused",
      "type": "event"
    },
    {
      "anonymous": false,
      "inputs": [
        {
          "indexed": false,
          "internalType": "uint256",
          "name": "accId",
          "type": "uint256"
        },
        {
          "indexed": false,
          "internalType": "address",
          "name": "addr",
          "type": "address"
        },
        {
          "indexed": false,
          "internalType": "uint256",
          "name": "reputation",
          "type": "uint256"
        },
        {
          "indexed": false,
          "internalType": "uint256",
          "name": "amount",
          "type": "uint256"
        },
        {
          "indexed": false,
          "internalType": "uint256",
          "name": "nonce",
          "type": "uint256"
        }
      ],
      "name": "ReputationClaim",
      "type": "event"
    },
    {
      "anonymous": false,
      "inputs": [
        {
          "indexed": false,
          "internalType": "address",
          "name": "account",
          "type": "address"
        }
      ],
      "name": "Unpaused",
      "type": "event"
    },
    {
      "anonymous": false,
      "inputs": [
        {
          "indexed": true,
          "internalType": "address",
          "name": "implementation",
          "type": "address"
        }
      ],
      "name": "Upgraded",
      "type": "event"
    },
    {
      "inputs": [
        {
          "internalType": "bytes32",
          "name": "_hash",
          "type": "bytes32"
        }
      ],
      "name": "GetBounty",
      "outputs": [
        {
          "components": [
            {
              "internalType": "uint256",
              "name": "totalAmount",
              "type": "uint256"
            },
            {
              "internalType": "uint256",
              "name": "starttime",
              "type": "uint256"
            },
            {
              "internalType": "uint256",
              "name": "endtime",
              "type": "uint256"
            }
          ],
          "internalType": "struct StackPointClaim.BountyStruct",
          "name": "",
          "type": "tuple"
        }
      ],
      "stateMutability": "view",
      "type": "function"
    },
    {
      "inputs": [],
      "name": "UPGRADE_INTERFACE_VERSION",
      "outputs": [
        {
          "internalType": "string",
          "name": "",
          "type": "string"
        }
      ],
      "stateMutability": "view",
      "type": "function"
    },
    {
      "inputs": [
        {
          "internalType": "bytes32",
          "name": "",
          "type": "bytes32"
        }
      ],
      "name": "_bounties",
      "outputs": [
        {
          "internalType": "uint256",
          "name": "totalAmount",
          "type": "uint256"
        },
        {
          "internalType": "uint256",
          "name": "starttime",
          "type": "uint256"
        },
        {
          "internalType": "uint256",
          "name": "endtime",
          "type": "uint256"
        }
      ],
      "stateMutability": "view",
      "type": "function"
    },
    {
      "inputs": [
        {
          "internalType": "uint256",
          "name": "",
          "type": "uint256"
        }
      ],
      "name": "_claimedBounty",
      "outputs": [
        {
          "internalType": "uint256",
          "name": "",
          "type": "uint256"
        }
      ],
      "stateMutability": "view",
      "type": "function"
    },
    {
      "inputs": [
        {
          "internalType": "uint256",
          "name": "",
          "type": "uint256"
        }
      ],
      "name": "_claimedReputation",
      "outputs": [
        {
          "internalType": "uint256",
          "name": "totalClaimed",
          "type": "uint256"
        },
        {
          "internalType": "uint256",
          "name": "lastUpdate",
          "type": "uint256"
        }
      ],
      "stateMutability": "view",
      "type": "function"
    },
    {
      "inputs": [
        {
          "internalType": "uint256",
          "name": "",
          "type": "uint256"
        }
      ],
      "name": "_nonces",
      "outputs": [
        {
          "internalType": "uint256",
          "name": "",
          "type": "uint256"
        }
      ],
      "stateMutability": "view",
      "type": "function"
    },
    {
      "inputs": [
        {
          "internalType": "uint256",
          "name": "_accid",
          "type": "uint256"
        },
        {
          "internalType": "uint256",
          "name": "_total_amount",
          "type": "uint256"
        },
        {
          "internalType": "bytes",
          "name": "_sig",
          "type": "bytes"
        }
      ],
      "name": "bountyClaim",
      "outputs": [],
      "stateMutability": "nonpayable",
      "type": "function"
    },
    {
      "inputs": [],
      "name": "c_signer",
      "outputs": [
        {
          "internalType": "address",
          "name": "",
          "type": "address"
        }
      ],
      "stateMutability": "view",
      "type": "function"
    },
    {
      "inputs": [
        {
          "internalType": "uint256",
          "name": "_accid",
          "type": "uint256"
        },
        {
          "internalType": "uint256",
          "name": "_reputation",
          "type": "uint256"
        }
      ],
      "name": "getMessageHash",
      "outputs": [
        {
          "internalType": "bytes32",
          "name": "",
          "type": "bytes32"
        }
      ],
      "stateMutability": "view",
      "type": "function"
    },
    {
      "inputs": [
        {
          "internalType": "uint256",
          "name": "_accid",
          "type": "uint256"
        },
        {
          "internalType": "uint256",
          "name": "_amount",
          "type": "uint256"
        }
      ],
      "name": "getMessageHash2",
      "outputs": [
        {
          "internalType": "bytes32",
          "name": "",
          "type": "bytes32"
        }
      ],
      "stateMutability": "view",
      "type": "function"
    },
    {
      "inputs": [
        {
          "internalType": "address",
          "name": "initialOwner",
          "type": "address"
        },
        {
          "internalType": "address",
          "name": "_token",
          "type": "address"
        }
      ],
      "name": "initialize",
      "outputs": [],
      "stateMutability": "nonpayable",
      "type": "function"
    },
    {
      "inputs": [],
      "name": "owner",
      "outputs": [
        {
          "internalType": "address",
          "name": "",
          "type": "address"
        }
      ],
      "stateMutability": "view",
      "type": "function"
    },
    {
      "inputs": [],
      "name": "pause",
      "outputs": [],
      "stateMutability": "nonpayable",
      "type": "function"
    },
    {
      "inputs": [],
      "name": "paused",
      "outputs": [
        {
          "internalType": "bool",
          "name": "",
          "type": "bool"
        }
      ],
      "stateMutability": "view",
      "type": "function"
    },
    {
      "inputs": [
        {
          "internalType": "string",
          "name": "_bountyId",
          "type": "string"
        },
        {
          "internalType": "uint256",
          "name": "_amount",
          "type": "uint256"
        },
        {
          "internalType": "uint256",
          "name": "deadline",
          "type": "uint256"
        },
        {
          "internalType": "uint8",
          "name": "v",
          "type": "uint8"
        },
        {
          "internalType": "bytes32",
          "name": "r",
          "type": "bytes32"
        },
        {
          "internalType": "bytes32",
          "name": "s",
          "type": "bytes32"
        }
      ],
      "name": "placeBounty",
      "outputs": [],
      "stateMutability": "nonpayable",
      "type": "function"
    },
    {
      "inputs": [],
      "name": "proxiableUUID",
      "outputs": [
        {
          "internalType": "bytes32",
          "name": "",
          "type": "bytes32"
        }
      ],
      "stateMutability": "view",
      "type": "function"
    },
    {
      "inputs": [],
      "name": "renounceOwnership",
      "outputs": [],
      "stateMutability": "nonpayable",
      "type": "function"
    },
    {
      "inputs": [
        {
          "internalType": "uint256",
          "name": "_accid",
          "type": "uint256"
        },
        {
          "internalType": "uint256",
          "name": "_reputation",
          "type": "uint256"
        },
        {
          "internalType": "bytes",
          "name": "_sig",
          "type": "bytes"
        }
      ],
      "name": "reputationClaim",
      "outputs": [],
      "stateMutability": "nonpayable",
      "type": "function"
    },
    {
      "inputs": [
        {
          "internalType": "address",
          "name": "_signer",
          "type": "address"
        }
      ],
      "name": "setSigner",
      "outputs": [],
      "stateMutability": "nonpayable",
      "type": "function"
    },
    {
      "inputs": [
        {
          "internalType": "address",
          "name": "newOwner",
          "type": "address"
        }
      ],
      "name": "transferOwnership",
      "outputs": [],
      "stateMutability": "nonpayable",
      "type": "function"
    },
    {
      "inputs": [],
      "name": "unpause",
      "outputs": [],
      "stateMutability": "nonpayable",
      "type": "function"
    },
    {
      "inputs": [
        {
          "internalType": "address",
          "name": "newImplementation",
          "type": "address"
        },
        {
          "internalType": "bytes",
          "name": "data",
          "type": "bytes"
        }
      ],
      "name": "upgradeToAndCall",
      "outputs": [],
      "stateMutability": "payable",
      "type": "function"
    },
    {
      "inputs": [],
      "name": "version",
      "outputs": [
        {
          "internalType": "string",
          "name": "",
          "type": "string"
        }
      ],
      "stateMutability": "pure",
      "type": "function"
    },
    {
      "inputs": [
        {
          "internalType": "uint256",
          "name": "_amount",
          "type": "uint256"
        }
      ],
      "name": "withdraw",
      "outputs": [],
      "stateMutability": "nonpayable",
      "type": "function"
    }
  ],
  "bytecode": "0x60a06040523060805234801561001457600080fd5b5061001d610022565b6100d4565b7ff0c57e16840df040f15088dc2f81fe391c3923bec73e23a9662efc9c229c6a00805468010000000000000000900460ff16156100725760405163f92ee8a960e01b815260040160405180910390fd5b80546001600160401b03908116146100d15780546001600160401b0319166001600160401b0390811782556040519081527fc7f505b2f371ae2175ee4913f4499e1f2633a7b5936321eed1cdaeb6115181d29060200160405180910390a15b50565b608051612180620000fe600039600081816114380152818161146101526115a201526121806000f3fe60806040526004361061014b5760003560e01c80636c19e783116100b6578063ae2611fb1161006f578063ae2611fb14610414578063b176969f14610434578063d44d32391461047d578063db387df314610399578063f2fde38b1461049d578063f36f9c4f146104bd57600080fd5b80636c19e78314610364578063715018a614610384578063734e6308146103995780638456cb59146103b95780638da5cb5b146103ce578063ad3cb1cc146103e357600080fd5b8063485cc95511610108578063485cc955146102765780634f1ef2861461029657806350554f2c146102a957806352d1902d146102eb57806354fd4d50146103005780635c975abb1461033457600080fd5b8063029ba1fa14610150578063055bc7ce146101905780632c2f4003146101e75780632e1a7d4d1461021f5780633c615ece146102415780633f4ba83a14610261575b600080fd5b34801561015c57600080fd5b5061017d61016b366004611c84565b60026020526000908152604090205481565b6040519081526020015b60405180910390f35b34801561019c57600080fd5b506101cc6101ab366004611c84565b60036020526000908152604090208054600182015460029092015490919083565b60408051938452602084019290925290820152606001610187565b3480156101f357600080fd5b50600154610207906001600160a01b031681565b6040516001600160a01b039091168152602001610187565b34801561022b57600080fd5b5061023f61023a366004611c84565b6104ea565b005b34801561024d57600080fd5b5061023f61025c366004611ce6565b6105c9565b34801561026d57600080fd5b5061023f61082d565b34801561028257600080fd5b5061023f610291366004611d55565b61083f565b61023f6102a4366004611d9e565b610a20565b3480156102b557600080fd5b506102c96102c4366004611c84565b610a3b565b6040805182518152602080840151908201529181015190820152606001610187565b3480156102f757600080fd5b5061017d610a98565b34801561030c57600080fd5b50604080518082019091526002815261763160f01b60208201525b6040516101879190611e84565b34801561034057600080fd5b5060008051602061212b8339815191525460ff166040519015158152602001610187565b34801561037057600080fd5b5061023f61037f366004611eb7565b610ab5565b34801561039057600080fd5b5061023f610adf565b3480156103a557600080fd5b5061017d6103b4366004611ed2565b610af1565b3480156103c557600080fd5b5061023f610b38565b3480156103da57600080fd5b50610207610b48565b3480156103ef57600080fd5b50610327604051806040016040528060058152602001640352e302e360dc1b81525081565b34801561042057600080fd5b5061023f61042f366004611ce6565b610b76565b34801561044057600080fd5b5061046861044f366004611c84565b6004602052600090815260409020805460019091015482565b60408051928352602083019190915201610187565b34801561048957600080fd5b5061023f610498366004611ef4565b610ec2565b3480156104a957600080fd5b5061023f6104b8366004611eb7565b611253565b3480156104c957600080fd5b5061017d6104d8366004611c84565b60056020526000908152604090205481565b6104f2611291565b600080546040516370a0823160e01b81523060048201526001600160a01b03909116906370a0823190602401602060405180830381865afa15801561053b573d6000803e3d6000fd5b505050506040513d601f19601f8201168201806040525081019061055f9190611f77565b9050818110156105a75760405162461bcd60e51b815260206004820152600e60248201526d616d6f756e74206578636565647360901b60448201526064015b60405180910390fd5b6105c56105b2610b48565b6000546001600160a01b031690846112c3565b5050565b6000841161060a5760405162461bcd60e51b815260206004820152600e60248201526d189859081858d8dbdd5b9d08125160921b604482015260640161059e565b600084815260056020526040812054906106248286611fa6565b90506101f48110156106785760405162461bcd60e51b815260206004820152601860248201527f6d696e696d756d20636c61696d20616d6f756e74203530300000000000000000604482015260640161059e565b60006106848787610af1565b6001549091506001600160a01b031661069e828787611327565b6001600160a01b0316146106e85760405162461bcd60e51b8152602060048201526011602482015270696e76616c6964207369676e617475726560781b604482015260640161059e565b6000878152600260205260408120805460019290610707908490611fb9565b9091555061071790508284611fb9565b600088815260056020526040808220929092555490516370a0823160e01b815230600482015283916001600160a01b0316906370a0823190602401602060405180830381865afa15801561076f573d6000803e3d6000fd5b505050506040513d601f19601f820116820180604052508101906107939190611f77565b10156107b15760405162461bcd60e51b815260040161059e90611fcc565b6000546107c8906001600160a01b031633846112c3565b6000878152600260209081526040918290205482518a8152339281019290925291810184905260608101919091527f4ed0057b77531b639e9d7844e40510885f4d10503dd50dfe12dca5d14f6b7855906080015b60405180910390a150505050505050565b610835611291565b61083d6113a4565b565b7ff0c57e16840df040f15088dc2f81fe391c3923bec73e23a9662efc9c229c6a008054600160401b810460ff16159067ffffffffffffffff166000811580156108855750825b905060008267ffffffffffffffff1660011480156108a25750303b155b9050811580156108b0575080155b156108ce5760405163f92ee8a960e01b815260040160405180910390fd5b845467ffffffffffffffff1916600117855583156108f857845460ff60401b1916600160401b1785555b6001600160a01b0387166109425760405162461bcd60e51b8152602060048201526011602482015270626164206f776e6572206164647265737360781b604482015260640161059e565b6001600160a01b03861661098c5760405162461bcd60e51b815260206004820152601160248201527062616420746f6b656e206164647265737360781b604482015260640161059e565b600080546001600160a01b038089166001600160a01b03199283161790925560018054928a16929091169190911790556109c4611404565b6109cd87611414565b6109d5611425565b8315610a1757845460ff60401b19168555604051600181527fc7f505b2f371ae2175ee4913f4499e1f2633a7b5936321eed1cdaeb6115181d29060200161081c565b50505050505050565b610a2861142d565b610a31826114d2565b6105c582826114da565b610a5f60405180606001604052806000815260200160008152602001600081525090565b50600090815260036020908152604091829020825160608101845281548152600182015492810192909252600201549181019190915290565b6000610aa2611597565b5060008051602061210b83398151915290565b610abd611291565b600180546001600160a01b0319166001600160a01b0392909216919091179055565b610ae7611291565b61083d60006115e0565b600082815260026020908152604080832054815192830186905290820184905260608201526080016040516020818303038152906040528051906020012090505b92915050565b610b40611291565b61083d611651565b7f9016d09d72d40fdae2fd8ceac6b6234c7706214fd39c1cd1e609a0528c199300546001600160a01b031690565b60008411610bb75760405162461bcd60e51b815260206004820152600e60248201526d189859081858d8dbdd5b9d08125160921b604482015260640161059e565b60008311610bfa5760405162461bcd60e51b815260206004820152601060248201526f1898590818db185a5b48185b5bdd5b9d60821b604482015260640161059e565b600084815260046020526040902060010154610c199062278d00611fb9565b4211610c675760405162461bcd60e51b815260206004820152601760248201527f636c61696d61626c652065766572792033302064617973000000000000000000604482015260640161059e565b60008481526004602052604081205490610c818286611fa6565b90506000610c90600a83611ffa565b905068056bc75e2d63100000811015610ce05760405162461bcd60e51b815260206004820152601260248201527106d696e696d756d20636c61696d20313030360741b604482015260640161059e565b6000610cec8888610af1565b6001549091506001600160a01b0316610d06828888611327565b6001600160a01b031614610d505760405162461bcd60e51b8152602060048201526011602482015270696e76616c6964207369676e617475726560781b604482015260640161059e565b6000888152600260205260408120805460019290610d6f908490611fb9565b90915550506040805180820190915280610d898487611fb9565b81524260209182015260008a8152600480835260408083208551815594909301516001909401939093555490516370a0823160e01b8152309281019290925283916001600160a01b03909116906370a0823190602401602060405180830381865afa158015610dfc573d6000803e3d6000fd5b505050506040513d601f19601f82011682018060405250810190610e209190611f77565b1015610e3e5760405162461bcd60e51b815260040161059e90611fcc565b600054610e55906001600160a01b031633846112c3565b6000888152600260209081526040918290205482518b815233928101929092529181018990526060810184905260808101919091527f386e19f922e07101d80b90409999970d08b6c162d88daaaba642b5a8f6539c819060a0015b60405180910390a15050505050505050565b60008787604051602001610ed792919061201c565b60408051601f198184030181529190528051602090910120905060058711610f2d5760405162461bcd60e51b8152602060048201526009602482015268189859081bd89a925960ba1b604482015260640161059e565b678ac7230489e80000861015610f755760405162461bcd60e51b815260206004820152600d60248201526c1b5a5b880c4c08185b5bdd5b9d609a1b604482015260640161059e565b60008181526003602052604090205415611057576000818152600360205260409020600201544210610fe25760405162461bcd60e51b81526020600482015260166024820152753137bab73a3c903832b934b7b21032bc3834b932b21760511b604482015260640161059e565b600081815260036020526040812080548891908390611002908490611fb9565b918290555060408051606081018252918252600085815260036020818152838320600181018054838801908152600283018054978901978852958b905293909252945190945551909255519055506110f19050565b60405180606001604052808781526020014281526020014262278d0061107d9190611fb9565b9052600082815260036020908152604091829020835181559083015160018201559101516002909101557fd23d5b87dc1fe99765d9980d2f73cd63ee70ea6c265b636692586a420c0ff4958888426110d88162278d00611fb9565b6040516110e89493929190612055565b60405180910390a15b6000546040516370a0823160e01b815233600482015287916001600160a01b0316906370a0823190602401602060405180830381865afa158015611139573d6000803e3d6000fd5b505050506040513d601f19601f8201168201806040525081019061115d9190611f77565b101561117b5760405162461bcd60e51b815260040161059e90611fcc565b60005460405163d505accf60e01b8152336004820152306024820152604481018890526064810187905260ff8616608482015260a4810185905260c481018490526001600160a01b039091169063d505accf9060e401600060405180830381600087803b1580156111eb57600080fd5b505af11580156111ff573d6000803e3d6000fd5b505060005461121c92506001600160a01b0316905033308961169a565b7f525d9549cd7c80f9f13e71a6eefda9984c30efedfa0464e52c772f0a90410a278888338942604051610eb095949392919061207c565b61125b611291565b6001600160a01b03811661128557604051631e4fbdf760e01b81526000600482015260240161059e565b61128e816115e0565b50565b3361129a610b48565b6001600160a01b03161461083d5760405163118cdaa760e01b815233600482015260240161059e565b6040516001600160a01b0383811660248301526044820183905261132291859182169063a9059cbb906064015b604051602081830303815290604052915060e01b6020820180516001600160e01b0383818316178352505050506116d9565b505050565b7f19457468657265756d205369676e6564204d6573736167653a0a3332000000006000908152601c849052603c812060006113988286868080601f01602080910402602001604051908101604052809392919081815260200183838082843760009201919091525061173c92505050565b925050505b9392505050565b6113ac611766565b60008051602061212b833981519152805460ff191681557f5db9ee0a495bf2e6ff9c91a7834c1ba4fdd244a5e8aa4e537bd38aeae4b073aa335b6040516001600160a01b03909116815260200160405180910390a150565b61140c611796565b61083d6117df565b61141c611796565b61128e81611800565b61083d611796565b306001600160a01b037f00000000000000000000000000000000000000000000000000000000000000001614806114b457507f00000000000000000000000000000000000000000000000000000000000000006001600160a01b03166114a860008051602061210b833981519152546001600160a01b031690565b6001600160a01b031614155b1561083d5760405163703e46dd60e11b815260040160405180910390fd5b61128e611291565b816001600160a01b03166352d1902d6040518163ffffffff1660e01b8152600401602060405180830381865afa925050508015611534575060408051601f3d908101601f1916820190925261153191810190611f77565b60015b61155c57604051634c9c8ce360e01b81526001600160a01b038316600482015260240161059e565b60008051602061210b833981519152811461158d57604051632a87526960e21b81526004810182905260240161059e565b6113228383611808565b306001600160a01b037f0000000000000000000000000000000000000000000000000000000000000000161461083d5760405163703e46dd60e11b815260040160405180910390fd5b7f9016d09d72d40fdae2fd8ceac6b6234c7706214fd39c1cd1e609a0528c19930080546001600160a01b031981166001600160a01b03848116918217845560405192169182907f8be0079c531659141344cd1fd0a4f28419497f9722a3daafe3b4186f6b6457e090600090a3505050565b61165961185e565b60008051602061212b833981519152805460ff191660011781557f62e78cea01bee320cd4e420270b5ea74000d11b0c9f74754ebdbfc544b05a258336113e6565b6040516001600160a01b0384811660248301528381166044830152606482018390526116d39186918216906323b872dd906084016112f0565b50505050565b60006116ee6001600160a01b0384168361188f565b9050805160001415801561171357508080602001905181019061171191906120b6565b155b1561132257604051635274afe760e01b81526001600160a01b038416600482015260240161059e565b60008060008061174c868661189d565b92509250925061175c82826118ea565b5090949350505050565b60008051602061212b8339815191525460ff1661083d57604051638dfc202b60e01b815260040160405180910390fd5b7ff0c57e16840df040f15088dc2f81fe391c3923bec73e23a9662efc9c229c6a0054600160401b900460ff1661083d57604051631afcd79f60e31b815260040160405180910390fd5b6117e7611796565b60008051602061212b833981519152805460ff19169055565b61125b611796565b611811826119a3565b6040516001600160a01b038316907fbc7cd75a20ee27fd9adebab32041f755214dbc6bffa90cc0225b39da2e5c2d3b90600090a2805115611856576113228282611a08565b6105c5611a7e565b60008051602061212b8339815191525460ff161561083d5760405163d93c066560e01b815260040160405180910390fd5b606061139d83836000611a9d565b600080600083516041036118d75760208401516040850151606086015160001a6118c988828585611b30565b9550955095505050506118e3565b50508151600091506002905b9250925092565b60008260038111156118fe576118fe6120d8565b03611907575050565b600182600381111561191b5761191b6120d8565b036119395760405163f645eedf60e01b815260040160405180910390fd5b600282600381111561194d5761194d6120d8565b0361196e5760405163fce698f760e01b81526004810182905260240161059e565b6003826003811115611982576119826120d8565b036105c5576040516335e2f38360e21b81526004810182905260240161059e565b806001600160a01b03163b6000036119d957604051634c9c8ce360e01b81526001600160a01b038216600482015260240161059e565b60008051602061210b83398151915280546001600160a01b0319166001600160a01b0392909216919091179055565b6060600080846001600160a01b031684604051611a2591906120ee565b600060405180830381855af49150503d8060008114611a60576040519150601f19603f3d011682016040523d82523d6000602084013e611a65565b606091505b5091509150611a75858383611bff565b95945050505050565b341561083d5760405163b398979f60e01b815260040160405180910390fd5b606081471015611ac25760405163cd78605960e01b815230600482015260240161059e565b600080856001600160a01b03168486604051611ade91906120ee565b60006040518083038185875af1925050503d8060008114611b1b576040519150601f19603f3d011682016040523d82523d6000602084013e611b20565b606091505b5091509150611398868383611bff565b600080807f7fffffffffffffffffffffffffffffff5d576e7357a4501ddfe92f46681b20a0841115611b6b5750600091506003905082611bf5565b604080516000808252602082018084528a905260ff891692820192909252606081018790526080810186905260019060a0016020604051602081039080840390855afa158015611bbf573d6000803e3d6000fd5b5050604051601f1901519150506001600160a01b038116611beb57506000925060019150829050611bf5565b9250600091508190505b9450945094915050565b606082611c1457611c0f82611c5b565b61139d565b8151158015611c2b57506001600160a01b0384163b155b15611c5457604051639996b31560e01b81526001600160a01b038516600482015260240161059e565b508061139d565b805115611c6b5780518082602001fd5b604051630a12f52160e11b815260040160405180910390fd5b600060208284031215611c9657600080fd5b5035919050565b60008083601f840112611caf57600080fd5b50813567ffffffffffffffff811115611cc757600080fd5b602083019150836020828501011115611cdf57600080fd5b9250929050565b60008060008060608587031215611cfc57600080fd5b8435935060208501359250604085013567ffffffffffffffff811115611d2157600080fd5b611d2d87828801611c9d565b95989497509550505050565b80356001600160a01b0381168114611d5057600080fd5b919050565b60008060408385031215611d6857600080fd5b611d7183611d39565b9150611d7f60208401611d39565b90509250929050565b634e487b7160e01b600052604160045260246000fd5b60008060408385031215611db157600080fd5b611dba83611d39565b9150602083013567ffffffffffffffff80821115611dd757600080fd5b818501915085601f830112611deb57600080fd5b813581811115611dfd57611dfd611d88565b604051601f8201601f19908116603f01168101908382118183101715611e2557611e25611d88565b81604052828152886020848701011115611e3e57600080fd5b8260208601602083013760006020848301015280955050505050509250929050565b60005b83811015611e7b578181015183820152602001611e63565b50506000910152565b6020815260008251806020840152611ea3816040850160208701611e60565b601f01601f19169190910160400192915050565b600060208284031215611ec957600080fd5b61139d82611d39565b60008060408385031215611ee557600080fd5b50508035926020909101359150565b600080600080600080600060c0888a031215611f0f57600080fd5b873567ffffffffffffffff811115611f2657600080fd5b611f328a828b01611c9d565b9098509650506020880135945060408801359350606088013560ff81168114611f5a57600080fd5b969995985093969295946080840135945060a09093013592915050565b600060208284031215611f8957600080fd5b5051919050565b634e487b7160e01b600052601160045260246000fd5b81810381811115610b3257610b32611f90565b80820180821115610b3257610b32611f90565b602080825260149082015273696e73756666696369616e742062616c616e636560601b604082015260600190565b60008261201757634e487b7160e01b600052601260045260246000fd5b500490565b8183823760009101908152919050565b81835281816020850137506000828201602090810191909152601f909101601f19169091010190565b60608152600061206960608301868861202c565b6020830194909452506040015292915050565b60808152600061209060808301878961202c565b6001600160a01b0395909516602083015250604081019290925260609091015292915050565b6000602082840312156120c857600080fd5b8151801515811461139d57600080fd5b634e487b7160e01b600052602160045260246000fd5b60008251612100818460208701611e60565b919091019291505056fe360894a13ba1a3210667c828492db98dca3e2076cc3735a920a3ca505d382bbccd5ed15c6e187e77e9aee88184c21f4f2182ab5827cb3b7e07fbedcd63f03300a264697066735822122044c9e959d7b03b656708cd23c0903ef12641e80d5d20586ef1fb0ec2f966491e64736f6c63430008180033",
  "linkReferences": {},
  "deployedLinkReferences": {}
}